:1000000040870020216801005BF00200F5670100D5
:10001000F5670100F5670100F567010000000000C9
:10002000000000000000000000000000415F01002F
:10003000F567010000000000ED5E0100F5670100BA
:10004000F15F0100611C0300F15F0100F15F01003D
:10005000F15F0100F15F0100F15F0100F15F01005C
:10006000291C0300F15F0100F15F0100471C030040
:10007000F15F0100F15F0100F15F0100F15F01003C
:10008000F15F0100F15F0100F15F0100F15F01002C
:10009000F15F0100F15F0100F15F0100F15F01001C
:1000A000F15F0100F15F0100F15F0100F15F01000C
:1000B000F15F0100F15F0100F15F0100F15F0100FC
:1000C000F15F0100F15F0100F15F0100F15F0100EC
:1000D000F15F0100F15F0100F15F0100F15F0100DC
:1000E000F15F0100F15F0100F15F0100F15F0100CC
:1000F000F15F0100F15F0100F15F0100F15F0100BC
:1001000053B94AB9002908BF00281CBF4FF0FF317E
:100110004FF0FF3000F00CB8ADF1080C6DE904CEE3
:100120000CF078FBDDF804E0DDE9022304B0704751
:10013000704700BF2DE9F00791E8F807B2E8021018
:100140005B1854EB0C04B2E802104D4156EB0C0660
:10015000B2E802104F4158EB0C08B2E8021059EB1C
:1001600001095AEB0C0A80E8F80780410130BDE82C
:10017000F00770472DE9F00791E8F807B2E80210A0
:100180005B1A74EB0C04B2E802108D4176EB0C069E
:10019000B2E802108F4178EB0C08B2E8021079EB5C
:1001A00001097AEB0C0A80E8F80780414042BDE87B
:1001B000F00770472DE9F007524290E87800B1E867
:1001C00080071740DB1918EA020854EB080419EA03
:1001D000020955EB09051AEA020A56EB0A0678C02D
:1001E00090E87800B1E8800717407B4118EA0208E0
:1001F00054EB080419EA020955EB09051AEA020A48
:1002000056EB0A0678C080410130BDE8F007704720
:100210002DE9F007524290E87800B1E880071740D6
:10022000DB1B18EA020874EB080419EA020975EBF3
:1002300009051AEA020A76EB0A0678C090E8780007
:10024000B1E880071740BB4118EA020874EB0804C4
:1002500019EA020975EB09051AEA020A76EB0A06A1
:1002600078C080414042BDE8F00770472DE9F001B9
:1002700052424FF0040890E8300091E8C000A31B00
:100280001340E41AF618EB1B1340ED1AFF1830C0A8
:10029000C0C1B8F10108EED1BDE8F001704700BF60
:1002A00000B592E8DC072DE9DC07B1E8805702B41D
:1002B000A7FB02510A95A8FB020BE7FB6310E9FBC1
:1002C00062B00B91A8FB0351EAFB6201E7FB64B546
:1002D000E7FB6605E8FB6615CDF830B0A9FB03B671
:1002E000EAFB6316ECFB6356E8FB640BE9FB641B5B
:1002F000EAFB645BECFB646B0D90ACFB0230059C8D
:10030000EEFB6250E9FB6460EAFB64B0E7FB64313A
:10031000E8FB6451069CE8FB6461E9FB64B1EAFB1D
:1003200064010E93A7FB0432079CE7FB6462E8FBC1
:1003300064B2E9FB6402EAFB6412049CE9FB6453C7
:10034000EAFB6463089CE7FB64B3E8FB6403E9FB36
:100350006413EAFB64230F955DF8049B99E800069B
:10036000DDF80080A9FB0854EAFB68B4DDF81080D2
:10037000ECFB6804EEFB6814E9FB6824EAFB6834D4
:10038000DDF80480EEFB6865E9FB68B5EAFB68050B
:10039000DDF81480ECFB6815EEFB6825E9FB683599
:1003A000EAFB68450F96DDF80880AEFB0876E9FBAE
:1003B0006806EAFB6816DDF81880ECFB6826EEFBA1
:1003C0006836E9FB6846EAFB6856DDF80C80ECFB12
:1003D00068B7EEFB6807E9FB6817EAFB6827DDF8FA
:1003E0001C80ECFB6837EEFB6847E9FB6857EAFBCB
:1003F000686708B000BD00BF2DE9F14F87B0FFF777
:100400004FFFDDF81C8008F1200888E8FF00FFBCE2
:1004100087E87F08BDE8F08F00B591E89857A3FB07
:1004200003520195A3FB0401E3FB6420E3FB671087
:100430000292A3FB0752E3FB6802E4FB6415E3FBB3
:100440006805E3FB69250391A4FB07B6E3FB692676
:10045000E3FB6A56E4FB670BE4FB682BE3FB6A5B98
:10046000E3FB6C6B0490A4FB0810E4FB6950E3FB16
:100470006C60E3FB6EB0E7FB6721E4FB6951E4FBD2
:100480006A61E3FB6EB1E4FB6E010592A7FB0832E3
:10049000E4FB6A62E4FB6CB2E4FB6E02E7FB6E1203
:1004A000E7FB6853E7FB6963E4FB6CB3E7FB6C03B2
:1004B000E7FB6E13E8FB6E230695A7FB0954E7FBE9
:1004C0006AB4E7FB6C04E8FB6C14E8FB6E24E9FB00
:1004D0006E34E8FB6865E7FB6AB5E8FB6A05E8FB94
:1004E0006C15E9FB6C25E9FB6E35EAFB6E4507965A
:1004F000A8FB0976E8FB6A06E9FB6A16E9FB6C26AD
:10050000EAFB6C36EAFB6E46ECFB6E56E8FB69B71D
:10051000E9FB6907E9FB6A17EAFB6A27EAFB6C3724
:10052000ECFB6C47ECFB6E57EEFB6E6700BD00BF4B
:100530002DE9F14F87B0FFF76FFFDDF81C8008F160
:10054000200888E8FF00FFBC87E87F08BDE8F08F3F
:1005500030B44FF0000310F8014B11F8015B013A81
:1005600084EA050443EA0403F5D1A3F101034FEA49
:10057000D37030BC704700BF4FF0000310F8012B60
:10058000013943EA0203F9D1A3F101034FEAD37021
:10059000704700BF30B411F8014B12F8015B6C409A
:1005A00000F8014B013BF6D130BC70472DE9F00754
:1005B00091E8F807B2E802105B1854EB0C04B2E8BB
:1005C00002104D4156EB0C06B2E802104F4158EBB9
:1005D0000C08B2E8021059EB01095AEB0C0A8941E8
:1005E000B3F1FF3374F1FF3475F1FF3576F1000696
:1005F00077F1000778F1000879F101097AF1FF3A03
:1006000051F100015B184C414D4156F1000657F184
:10061000000758F1000859EBD1795AEB010A80E83C
:10062000F807BDE8F00770472DE9F00791E8F807F3
:10063000B2E802105B1A74EB0C04B2E802108D41B0
:1006400076EB0C06B2E802108F4178EB0C08B2E8AA
:10065000021079EB01097AEB0C0A89415B184C41D5
:100660004D4156F1000657F1000758F1000859EBCB
:10067000D1795AEB010A80E8F807BDE8F007704726
:1006800018EB040859EB05095AEB060A5BEB070B5C
:100690005FF0000C4CF1000C18EB050859EB060953
:1006A0005AEB070A5BEB070B50EB0C005FF0000CFA
:1006B00051EB0C0152EB0C0263414CF1000CB8EB16
:1006C000070879F100097AF1000A7BEB040BA841D5
:1006D000B141A241B3416CF1000CBBEB050BB04141
:1006E000B941AA41BB416CF1000C4CF001068CF001
:1006F000020718EB060859EB6C095AEB6C0A7BEB06
:100700006C0B70EB6C0471EB6C0572EB670653EBD2
:100710006C076CEB6C0C18EB0C0059EB0C015AEBF2
:100720000C025BF1000354F1000455F1000556EB97
:10073000DC7657EB0C0770472DE9F14F87B0FFF7D8
:10074000AFFDDDF81080DDF81490DDF818A0FFF79C
:1007500097FFBDE8000FFFF793FF03B05DF8048B30
:1007600088E8FF00BDE8F08F2DE9F14F87B0FFF773
:1007700053FEDDF81080DDF81490DDF818A0FFF7C7
:100780007FFFBDE8000FFFF77BFF03B05DF8048B30
:1007900088E8FF00BDE8F08F1FB5144C207A8DF873
:1007A0000100E0798DF80000A079ADF804006079CF
:1007B000ADF80200684606F0E3FA08B1AD2110E09A
:1007C000E068029002A806F0F1FA08B1B12108E051
:1007D00007480068039003A80FF0DCFB002803D053
:1007E000B521032000F0E4F81FBD00001013002025
:1007F000B80A000010B528B11422044910F043FBD8
:10080000002010BD6FF0150010BD0000E00A0000D0
:1008100070B56FF02C0578BB224C607808B1A81138
:1008200070BDF9B16FF01500002AF9D01E4B891E7A
:10083000072931D2DFE801F00407171A301D210023
:10084000107858701DE091780029E9D0D1780029FE
:10085000E6D011781B29E3D351781B29E0D3106827
:10086000C3F805000DE01068D8600AE010789870B1
:1008700007E01088588204E00EE01188FF29CFD8E5
:1008800019750122084900200CF014F9B0F5803FD9
:1008900004DB6FF00B0070BD284670BD0121A17014
:1008A00070BD0000400000201013002010B5074C60
:1008B000607820B106F060FD20780BF0CBFE00F0F0
:1008C0004DFE00F025FF0020607010BD40000020AC
:1008D00070B50C46050002D00CB1600702D06FF075
:1008E000150070BD00F022F9A8B128460BF078FE83
:1008F0000A4D00220A49287020460CF0DBF80FF060
:1009000058FF0021287806F021FDFFF745FF012060
:100910006870002070BD4FF0FF3070BD40000020B7
:100920001013002030B589B004000CD00BF000FE8D
:100930004FF0FF3520B10BF093FCB0F5FA7F05D9ED
:10094000284609B030BD6FF01500FAE7134D144882
:100950006C6000F007FA00206870A870014624223D
:10096000684610F00AFB24220E49684610F08BFA04
:10097000242269460C4810F086FAEFF3108472B610
:1009800000F0FAFD094800F0CFFE18B1CB2103209A
:1009900000F00EF804B962B60020D2E74000002053
:1009A00099070000BC0A000010130020590B00003A
:1009B0000EB572B6154A5568DDB1002203466E4683
:1009C0000A2403E0B0FBF4F0521CD2B20028F9D1A3
:1009D000B0540AE0D8B2B0FBF4F7B3FBF4F304FB75
:1009E0001700521ED2B23030B054002AF2D1304635
:1009F000A847BFF34F8F06480168064A01F4E0613B
:100A000011430160BFF34F8F00BFFDE7400000209E
:100A10000CED00E00400FA05064810B58178407836
:100A2000014302D04FF0FF3010BD06F0B5FC0020AE
:100A300010BD000040000020064810B581784078C5
:100A4000014302D04FF0FF3010BD06F0CDFA002078
:100A500010BD000040000020064810B581784078A5
:100A6000014302D04FF0FF3010BD0FF037FC0020E3
:100A700010BD000040000020064810B58178407885
:100A8000014302D04FF0FF3010BD06F097FC00206C
:100A900010BD000040000020064810B58178407865
:100AA000014302D04FF0FF3010BD0FF02BFC0020AF
:100AB00010BD000040000020010000000001010006
:100AC000001B1B03020000004C1D000000001F0063
:100AD000080000000000000000000000000000000E
:100AE000E07E2EC15E0585234615DCFA8E297D70D9
:100AF0001093A5FC054A10B5526812B1BDE810402C
:100B0000104792210420FFF753FF00003413002008
:100B1000054A10B5926812B1BDE8104010479821FF
:100B20000420FFF745FF000034130020054801684A
:100B300029B1416819B1806808B1012070470020CF
:100B4000704700003413002002490DC881E80D00F1
:100B50000020704734130020F8B5124C0026256899
:100B600011E00098022802D003280CD106E020688A
:100B700010B10020266005E028210CE0206868B153
:100B800001202660A847684600F094FD0028E8D0C0
:100B9000052805D035210420FFF70AFF2D21FAE7AB
:100BA000F8BD0000480000202DE9FC41284E054614
:100BB000001D06F144073060387858B1BA783C46D9
:100BC000791C2846921C10F05EF900202070042049
:100BD000BDE8FC811E4801F06DFF0446022804D0E8
:100BE000042C07D0082C2CD02FE0194928460CF0F3
:100BF00026F82AE03078082804D105213E200BF0A1
:100C0000F0FF50B1124928460CF07EF8B0F5817F14
:100C10000ED3C7210820FFF7CBFEB088ADF8000047
:100C200001A968460CF0E0FA0028C5D0A821F1E738
:100C30000028C1D0A97828780BF0D3FF0028BBD0BA
:100C400003E0034928460CF028F82046C0E70000DE
:100C50004013002070B50A7882703AB3012A25D873
:100C60001323037000230AE001EB430400EB430568
:100C7000A678EE706488240A5B1C2C71DBB2934268
:100C8000F2D300230BE000BF01EB430500EB43046C
:100C90002E796671AD882D0A5B1CA571DBB293427B
:100CA000F2D3012101EB8200C0B270BD002070BD03
:100CB000402803D2401EC1B2054805E0FF2805D0F8
:100CC0004038C1B2024808300CF01DBA012070470C
:100CD0004C000020401EC1B201480CF014BA0000C4
:100CE0005C000020024902680A6140684861704760
:100CF0004C000020054902680A60406842F48C22DA
:100D00000A60034A10434860704700004C0000200E
:100D1000F8074002024902688A604068C86070476C
:100D20004C00002007484FF0FF3100220160C90C41
:100D3000416000F108011F200A604A600831C1E9E2
:100D4000000270474C00002010B5FFF7EBFF0FF0DA
:100D500039FA04460248006800B18047204610BDB9
:100D60006400002001490860704700006400002012
:100D70002DE9F04104464FF08050D0F8A0701F4D8F
:100D80001E4E103D10220021204610F0F6F81022D1
:100D9000002104F1100010F0F0F82868401C08D180
:100DA0006868401C05D1A868401C02D1E868401C56
:100DB00007D028686A68A968EB6820616261A16150
:100DC000E361002000F084FD8743F80713D1306809
:100DD000401C08D17068401C05D1B068401C02D18D
:100DE000F068401C07D032687068B168F368226010
:100DF0006060A160E3600020BDE8F0819000001019
:100E000038B54FF0805104462248D1F8A010214D4A
:100E10000268143D521C04D14268D2431204120CE1
:100E200035D0C90733D001684068ADF80000C4F878
:100E30000110BDF80000A4F80500A07940F0C00042
:100E4000A0712868401C0CD06868401C09D0A868B4
:100E5000401C06D0E868401C03D0002000F038FD9C
:100E600040B110220021E01D10F087F80120207011
:100E7000002038BD2A686968A868EB68C4F80720B4
:100E8000C4F80B10C4F80F00C4F81330EEE70020CC
:100E9000EDE70000A4000010022101804180002144
:100EA0000171E021417142F67E61C180014981609A
:100EB00000207047C15E05852DE9F0418C79DDF891
:100EC00018E0082C01D9DB212CE0DFF8A4C05CF885
:100ED00020500DB1DC2125E0CD79002D45D06F00EB
:100EE0000A371D68022C3D4401D9264601E04FF027
:100EF00002062E44A6F1010601D9254601E04FF075
:100F00000205A5F1010526EA05068D882544A4F110
:100F10000104A5F1010525EA04054FF6FF74A54279
:100F200003D3E7211720FFF743FDBEF1000F18D1CF
:100F3000F41B4CF820402580C879A0700120E07097
:100F4000227108684FF6F072000CE080088820815A
:100F5000002003E004EB4007401C7A81CF798742F0
:100F6000F8D8C87900FB05601860BDE8F081000082
:100F70006800002030B503464FEA020003EB40044E
:100F800064898C4209D09C78401CB0FBF4F504FBCA
:100F90001500C0B29042F1D1FF2030BD70B50546BA
:100FA000194850F8214064B3B5F5706F04D340F28E
:100FB00025211720FFF7FCFC294620460CF0BFFB3B
:100FC0000146FF2804D02046BDE870400CF0CBBBA2
:100FD000A078B5FBF0F100FB1150C6B232464FF6D7
:100FE000F0712046FFF7C6FF0246FF2809D0B24243
:100FF00001D00020E07029462046BDE870400CF08A
:1010000098BB002070BD000068000020084A10B5A1
:1010100052F82140014620460CF091FB0146FF2882
:1010200004D02046BDE810400CF09DBB002010BD50
:1010300068000020F0B589B004000E46069407D081
:101040000025600706D040F219111720FFF7B0FC09
:101050000125F6E714480022144F02604260D7E9E8
:10106000001096F800C0BB686CF31F60CDE9020366
:10107000CDE9005106AB01A91046FFF71DFFD7E9E6
:10108000031073787A6963F31F60CDE90202CDE93A
:10109000005106AB002201A90120FFF70DFF0698C1
:1010A00009B0001BF0BD0000680000209C1100008A
:1010B00010B5044680790E4951F82000A8B14FF6CA
:1010C000F073E179827891420FD24A1CE27100EB11
:1010D000410252899A42F4D000EB41025289A28027
:1010E0000CF041FB2060002010BD052010BD000069
:1010F000680000202DE9F04107464FF6FF70388068
:10110000124850F82140ECB1A5782079B0FBF5F1F8
:1011100005FB110632464FF6F0712046FFF72AFF15
:101120000246FF280ED0A81B1044B0FBF5F105FBCA
:1011300011002179084481B239802046BDE8F04190
:101140000CF0F7BA0020BDE8F08100006800002034
:101150002DE9F0410646104850F821503146284606
:101160000CF0EDFA0446FF2812D0D5F8060021460F
:101170004FEA304728460CF0F6FA01463046B847A9
:1011800005EB44014FF6F07048810020BDE8F08186
:1011900043F20200FAE700006800002077F5000043
:1011A000F8020800000000004DEB000018010800E4
:1011B000000000002DE9FF4F244C064681B0206856
:1011C0009A46934658B1017AB14203D9406850F823
:1011D000260040B143F2020005B0BDE8F08FA52122
:1011E0001820FFF7E5FB194602980CF0F7FA804645
:1011F00058460E990CF0E8FA054608EB0500001D6C
:1012000087B22068A146394600680CF02DFA040028
:101210001AD0678025802946201D0E9D07465A4614
:10122000092300950CF09AF92088414638440A2396
:10123000029ACDF800A00CF091F9D9F800004068AE
:1012400040F826400020C7E70420C5E770000020D2
:1012500070B5144C23688BB1197A814212D95A683F
:1012600052F8201071B1002542F820504A881868C1
:101270000CF052FA216800200A7A0CE0C6211820EE
:10128000FFF796FB43F2020070BD4B6853F8203025
:1012900033B9401CC0B28242F7D808680CF031FA6A
:1012A000002070BD700000202DE9F0410D460400C3
:1012B00090464FF0000606D00027A00705D08621F3
:1012C0001820FFF775FB0127F7E7CDB11146002085
:1012D0000CF0FBF90C3000EB85068FB90A4F04F1D6
:1012E0000C00AA003C602572606000EB8500206065
:1012F000002160680FF041FE414638680CF0E5F9C6
:101300003046BDE8F08100007000002070B5084D47
:10131000286800280AD0002404E02046FFF798FF40
:10132000641CE4B22868007AA042F6D870BD0000C0
:1013300070000020094910B502460968002049B133
:101340000B7A934205D9496851F82210002900D040
:10135000081D10BDEC211820FFF72AFB70000020AB
:101360000A4910B502460968002059B10B7A934228
:1013700007D9496851F82210002902D031F8040B2E
:10138000084410BDFA211820FFF712FB700000205E
:1013900070B51E4B456804460022A1B10120607063
:1013A000588881085FF0000004EB400304EB8006DE
:1013B0001A83198400FB015373602318401C1A75AB
:1013C0000428F1D370BD62705FF0000004EB4001AF
:1013D0000A830A8404EB80014A602118401C0A75C4
:1013E0000428F3D35888B0F5FF7F01D2460800E007
:1013F000FF260CF067FA656020842918A1606684D6
:10140000E560A0842161E68470BD000074000020C6
:101410002DE9F04158B100251144244ECCB20027EB
:101420003470810705D04E210920FFF7C1FA01254C
:10143000F2E71F2B04D84FF6FF7101EA830109E0A0
:101440005900FF2B0CD903F1FF02B2EB430F00D27E
:10145000114689B24FF6FC72C91C114035B107E044
:101460007C22B2EB430FF4D37C21F2E770607180F1
:1014700004EB840207EBC203002276684FF0010CF4
:101480000DE04DB902EB820700EB030E06F837C002
:1014900006EBC707C7F804E0521C0B44D2B2A242C5
:1014A000EFD3DB1D23F00700BDE8F08174000020BE
:1014B00070B5104A00205168127814E000EB8003E8
:1014C00011F833306BB100EB800011EBC0040CD08D
:1014D0000025A57001212046FFF75AFF2570204600
:1014E00070BD401CC0B29042E8D3A9210920FFF78B
:1014F0005FFA000074000020044810B5408884089A
:101500000CF0E0F9844200D3204610BD74000020A6
:1015100030B50D4901204860821EC1F808230B49EF
:1015200088600023C1F80032C1F80823084C23600A
:10153000251D28608860C1F80823236028600649BB
:101540000448086030BD000000E0004000F00040AA
:1015500000F500400000F63F08F5014010B5FFF728
:10156000D7FF0CF086FA03490148086010BD00005F
:101570000000F63F08F5014010B5FFF7C9FF0CF079
:1015800078FA00F087F805490348086000F0B8F8D9
:10159000BDE8104000F0DCB80000F63F08F501405F
:1015A0002DE9F84F824638480FF07CFBDFF8D8B0C1
:1015B00028B101260BF10100FF21017000E0002697
:1015C0004FF48075314C4FF000082F1D01216160F0
:1015D000C4F80081C4F80481C4F804A52160DFF8D0
:1015E000B0901CE0D9F80000C00618D50E200CF011
:1015F0004FFAEFF31080009072B603212046C4F832
:10160000041329460CF051FA30B9394620460CF043
:101610004CFA08B90FF0DDFB009800B962B6294614
:1016200020460CF042FA28B9394620460CF03DFA23
:101630000028D7D0394620460CF037FA0028C5D10B
:1016400006BB9BF801108DF80010009900919DF8E1
:10165000001009B1012500E000250BF1010080F820
:1016600000800320C4F80803C4F80481C4F8008192
:101670000E200CF00DFA04480FF02BFB15B11120D1
:10168000BDE8F88F0020FBE76403002000E0004085
:1016900010ED00E010B506480FF017FB18B130212F
:1016A0001D20FFF785F902480021417010BD0000A0
:1016B0006403002070B511490A68EAB100231D4691
:1016C00001244A68521C4A60092A00D34D600E79F1
:1016D00004FA06F20E6816420BD0EFF3108372B6CE
:1016E0000C6894430C6003B962B64968016000203D
:1016F00070BD5B1C092BE4D3052070BD7C0000206D
:101700000248002101604160704700007C00002019
:1017100010B5044C2078FF2803D00AF09BFFFF206F
:10172000207010BD0000002010B5084C617809B190
:101730000F2010BD0AF054FF2070FF2801D00020B8
:1017400010BD73211F20FFF733F9000000000020B7
:101750000149002048707047000000200648074AF1
:10176000818C5288914204D190F8220008B1002067
:1017700070470120704700006015002058030020CA
:101780000149488070470000580300200848094A72
:10179000818C5288914209D14FF6FF71818410F8F3
:1017A000221F19B1002101700120704700207047ED
:1017B0006015002058030020074810F8221F012957
:1017C00007D0012101700548034900888884012061
:1017D000704700207047000060150020580300206B
:1017E0000649074B8A8C5B889A4205D191F82220E2
:1017F00012B1016001207047002070476015002081
:101800005803002009498A8CA2F57F43FF3B02D090
:101810000021016007E091F822200449012A02D04A
:101820000160012070470020704700006015002013
:101830000149088070470000580300200549002036
:1018400081F822004FF6FF708884034908804880A1
:1018500070470000601500205803002005498A8C5D
:10186000824205D1002081F822004FF6FF70888463
:1018700070470000601500200A4A10B1012807D007
:101880000EE0507860B1D2F802000860D08804E021
:10189000107828B19068086090898880012070478E
:1018A0000020704766030020084A012338B1012850
:1018B00004D11370086890608888908170475370D5
:1018C0000868C2F802008888D0807047660300204C
:1018D000064910B1012802D005E0487800E00878F8
:1018E00008B1012070470020704700006603002007
:1018F0000149087770470000220E002001488078D7
:1019000070470000840000200148C0787047000044
:101910008400002070B50C46054600F01FF918B190
:10192000D0212720FFF744F8034801210CF0DFFC09
:101930000248C0E90B5470BD000E00208400002056
:101940000149012048717047840000202DE9F84FBB
:101950005B4D0A9C2E78002E6BD1002A69D0002B9B
:1019600067D0002C65D005F11406C5E90F0186E8A3
:101970001C0000276F712F71AF706F70EF70AF8117
:10198000EF8100F02FF9064600F026F9044606F034
:10199000D1F905F029FF94F96E0006F04FFAE069DD
:1019A00006F032FB606906F025FB96F8330006F07E
:1019B0005BFB05F13C00406890F81A0208B106F0A4
:1019C00033F994F86B10012006F072F8002870D0FB
:1019D0003C4806F0D9F82088FFF7C2FC68632088ED
:1019E000FFF7A8FC06F18802A86392E80C11DFF863
:1019F000D89089E80C11D6F89820C9F81920D6F8A3
:101A00009C10C9F81D1000F025F90146208F0CF03C
:101A1000C3F9A18E814200D20846A871A84694F865
:101A20006B10BA46E08F96F82370A58F082904D171
:101A300002E040F2451140E004210CF0ADF90FB98D
:101A4000001D80B2854200D22846C5B288F80750F2
:101A500088F8085096F82300D04690B1012789F8FD
:101A60001870D6E92012C9E9041294F86B000CF042
:101A7000A8F803462A4614493846CDF8008005F0F8
:101A80001FFE012000F046FB10480068032812D01A
:101A90000B2810D00C480E2200214A300FF06DFAAE
:101AA0000948B18A4A3041802188018096F8331074
:101AB0000171BDE8F88F40F202212720FEF778FF80
:101AC0008400002018230000D80D0020501500408D
:101AD0002DE9FC418846074600F084F81A4C05467B
:101AE000B807616A4E7816D5A06A30B36289D21CF5
:101AF0000FF0C9F9A06A6062694601AAA06B0BF0F9
:101B0000AAFC00980BF05DFCC8F8000031460122E9
:101B1000A06B0BF00DFCF8070DD0D5E920011835AE
:101B2000401C41F10001C5E91A0115F81809012806
:101B300008D001202876BDE8FC8140F25C412720D6
:101B4000FEF736FF0020F5E7840000200248C08938
:101B5000C0F3802070470000840000200448007813
:101B600008B10C2070470349002008777047000037
:101B700084000020220E00200C4810B5017849B1E5
:101B800000F13C010078022808D040F21E212720F5
:101B9000FEF70EFFBDE8104000F0CAB94868D0F863
:101BA0003002BDE8104005F0F7BF000084000020BF
:101BB0000846002141701D2100F8041B0E22014936
:101BC0000FF061B9300E0020024A938903439381DC
:101BD00052691047840000200148406870470000A7
:101BE000C00000200148406880307047C0000020DD
:101BF000014A0021526910478400002070B5054653
:101C0000012918D8124CA1698847A0B1207990B950
:101C1000E5B904F110000178C80605D4E06A00783F
:101C2000C00601D4012000E00020A26A2AB962891E
:101C30001AB1C90601D4012070BDA1898A0703D554
:101C4000226AD278022A01D00843F4D1002070BD64
:101C50008400002010B5FFF7BFFF0446FFF7C2FF66
:101C60000246417F1648252910D026290ED0927FA2
:101C7000252A0BD020290DD021290BD0232A0FD0C3
:101C800094F86A00042800D1082010BD406890F83C
:101C9000CE120EE0232A03D0406890F83E0105E002
:101CA000416891F83E0191F8631008400BF07FFF06
:101CB000014694F86A00BDE810400BF090BF0000A8
:101CC000C00000202DE9FF5F8B468146FFF78AFFA9
:101CD0000026664C07468DF808600396019620782A
:101CE0003546022804D040F2DF412720FEF760FE8F
:101CF000A07B400606D44020FFF77AFFE08940F041
:101D00004000E08197F82300B9F1000F3AD080B18C
:101D100005F0A4FD05F07EFD58B9606A417841B137
:101D20000078397EC0F3C000884202D10120607083
:101D300097E0606A4178618121B1A06B0BF061FC92
:101D4000A06200E0A562E08940F48070E081606AF2
:101D5000F97D0078C0F38000884207D003A800F026
:101D60008BF9E08940F48060E08100E00126606A40
:101D7000397E0078C0F3C00088420DD102A800F07F
:101D800031F909E008B105F063FDA078401CA070AE
:101D9000E08940F40070E081DFF8D0A097F82200DD
:101DA0000AF13C0A90B1FFF717FF31490D76D7E9E8
:101DB0001E23C1E9042390F86A000BF002FF0346DA
:101DC000FB222B492846009505F07AFC4FF00008CD
:101DD000BBF1000F04D1A1780120FFF70FFF20B164
:101DE00006F0F4F84FF0010802E0002000F0D0F90E
:101DF0009DF8080018B101A90220FFF769FE1C48F0
:101E0000BA8A4A303EB11AB9C2880AB9028912B1F7
:101E10004289521C4281B9F1000F04D0C188491C8B
:101E2000C180A57002E00189491C01810F483C3046
:101E300001F0F2F9039840B10BF0C3FADAF804109C
:101E4000401C057208220CF0D9FA019830B1DAF87A
:101E500004100572102201980CF0D0FAB8F1000FAE
:101E600001D000F065F8BDE8FF9F0000840000206D
:101E7000D80D00202DE9F84388468146FFF7B2FED1
:101E8000294D04462878012804D040F26B412720D0
:101E9000FEF78EFD207C0027012628B12774002143
:101EA0000420FFF791FEA674296A0878C0438007D2
:101EB00009D1A07D88BB0220FFF786FE286A007842
:101EC000C043800729D0286A407810B10220A0754D
:101ED00000E0A67594F8230098B1FFF77DFE134942
:101EE0002D7A0E76D4E92023C1E9042390F86B0003
:101EF0000BF067FE03462A460C493046009705F072
:101F0000DFFB38EA090004D000210846FFF776FE1F
:101F100028B1BDE8F84300F00BB80320D7E7BDE8CF
:101F2000F843002000F0F6B884000020D80D00200F
:101F300010B505F033FD05F057FC0D4CE089FFF7B7
:101F400057FE0C48007F58B10A490E2201F10E00DD
:101F50000EF099FF0748022207491D300CF062FA83
:101F6000E2692179607890470020207010BD000060
:101F700084000020220E0020B11B0000084810B58C
:101F80000078022804D040F249212720FEF710FDF6
:101F9000044901200873BDE81040FFF7C9BF0000E5
:101FA00084000020220E002030B404460C48007A41
:101FB0000BB1001DC0B23AB9FF2805D194F86B20CF
:101FC00094F86A309A4209D021B194F86B1030BC71
:101FD00006F020B8FF2094F86A10F8E730BC70478C
:101FE000840000202DE9F0410746FFF7FBFD214C5E
:101FF00005460126616A087800F0030001280CD02C
:1020000002280AD003281BD12E74E08940F4006016
:10201000E0810120FFF7D8FD12E0487880B1E18926
:1020200041F40061E181A16A002918D0FB2818D889
:10203000607920B1BDE8F0412020FFF7D9BD3E70A6
:10204000287E012812D02E76606A4078002806D0BB
:10205000F5E92001401C41F10001C5E90001BDE89E
:10206000F081207940F010002071F8E700202876F8
:10207000EAE700008400002070B50546FFF7B2FDD6
:102080000446807D00282DD002280CD11B4829460B
:10209000406B0BF025F930B3D4E91E01401C41F12F
:1020A0000001C4E91E010025A575A07C20B1A5741E
:1020B00000211020FFF788FD607C70B16574FFF788
:1020C00065FB98B100210820FFF77EFDD4E91E01D1
:1020D000401C41F10001C4E91E01E07D01280AD045
:1020E0000120E07570BD40F2DA3101E040F2F131DB
:1020F0002720FEF75DFCE57570BD00008400002020
:1021000003480078002801D0FFF712BF7047000095
:10211000840000202DE9F0410646FFF75DFD804672
:10212000FFF760FD184C05463246E06A606295F89C
:10213000233001214046FFF737FF95F823000027A1
:1021400070B1206B05F09CFE104801210176D5E9A5
:102150002012C0E90412216B606A05F003FB04E061
:10216000606A05F08DFE05F03FFB16B9384605F0B4
:1021700037FD002198F86A20084605F009FF022083
:102180002070BDE8F081000084000020D80D002000
:102190002DE9FC470446FFF725FD0546FFF71CFD2A
:1021A00000278DF800700646DFF8649195F823301B
:1021B00022463946FFF7F8FEA87D4FF00108A9F145
:1021C000200440B1012820D002282FD003283BD082
:1021D00040F2FB2157E0A0795021ADF8040088536C
:1021E0004846FFF7FDFA30B18020216AFFF7ECFC8A
:1021F00085F811802CE06A4601A9606B0BF0F9FCB0
:10220000206210B195F85B1011B1424820621FE0C6
:102210009DF8001021B90780877001210CF067F844
:10222000BDF80410206A0BF0EAFF11E0B6F8500088
:10223000ADF804006A4601A9606B0BF0DAFC20627D
:1022400030B940F2E5211EE04846FFF7C9FAC0B1B7
:10225000206A0823017801F0F7010170EA7D03EAA2
:10226000C202114301F0FB0101702A7E042303EA3C
:102270008202114301F0EF010170C943890705D0C3
:1022800007E040F2EE212720FEF792FBC0780228FB
:102290000FD0606B0BF022F908B101210AE0206A2F
:1022A0000078C043800704D0FFF758FA80F001019E
:1022B00000E00021206A027842EA0111017095F8DD
:1022C000221081B1417871B1206B05F0D9FD114820
:1022D00028380776D5E91E12C0E90412216A206B5E
:1022E00005F040FA03E005F0CBFD05F07DFA96F825
:1022F0006B200121002005F04BFE84F80380216A49
:102300000A8822828978A17484F80080BDE8FC875D
:10231000A4000020000E00207D1F0000C51C00004E
:10232000751E0000012100000048704710170020B2
:1023300004494A78824203D9084490F84201704720
:10234000002070478615002004494A78824203D94C
:1023500001EB001082307047002070478615002086
:10236000054A01EB410102EB41010268C1F80A2173
:102370008088A1F80E017047861500202DE9F041F4
:102380000E4607461546062130460BF0FBFD0D4C68
:1023900060B1002004E02118401C81F83A51C0B21D
:1023A00061788142F7D80120BDE8F0813146384696
:1023B0000BF02EFC082803D0204480F83A51F2E7B5
:1023C0000020F1E78615002004494A78824203D9AB
:1023D00001EB0010801C704700207047861500201C
:1023E00010B54FF4C572002105480EF0C6FD054832
:1023F0000021017041704FF46171418010BD0000F7
:10240000861500205C030020014908707047000019
:102410005C03002001480078704700005C03002046
:102420000B4B10B55C78844210D9184490F8020127
:10243000C0EBC000184490F852310B70D0F8531123
:102440001160B0F857019080012010BD002010BD30
:10245000861500202DE9F047984691460F4606461E
:1024600000F0B0F80446082806D000F097F80828D5
:1024700002D01220BDE8F0871F4D6878082838D2B6
:10248000082C13D12C78601C2870082C03D344210D
:102490002820FEF78DFAC4EBC40028443968C0F840
:1024A0005311B988A0F8571180F852616E78102244
:1024B000701C687005EB0617B81C49460BF0F4FC5D
:1024C00007F18200102241460BF0EEFC102140463D
:1024D0000BF058FD3544102185F84201484605F2BD
:1024E0002B150BF04FFDE87705F8294C0020E87319
:1024F000C0E70720BEE7000086150020064810B59B
:102500004078401E44B204E0E0B200F0BDF8641E22
:1025100064B2002CF8DA10BD86150020014840880E
:10252000704700005C03002038B14AF2B8118842BD
:1025300003D80349488001207047002070470000FD
:102540005C03002005494A78824203D9084490F888
:102550003A0108B10020704701207047861500201D
:1025600001494870704700005C030020024609489A
:1025700010B500780B4658B10748417841B10BB10E
:10258000801C01E00448823004F0F4FF012010BDFB
:10259000002010BD5C03002086150020084910B5FE
:1025A000034600204A7806E00C1894F802419C4249
:1025B00004D0401CC0B28242F6D8082010BD0000F2
:1025C00086150020F0B51A4C0346002025782BE034
:1025D000C0EBC00222440F7892F853C192F85261C6
:1025E00087EA0C075E403E444F7892F854C187EA70
:1025F0000C073E448F7892F855C187EA0C073E4499
:10260000CF7892F856C187EA0C073E440F7992F8CA
:1026100057C192F8582187EA0C073E444F7957403A
:10262000F74204D0401CC0B28542D1D80820F0BD8A
:102630008615002070B50546FFF7B0FF082820D1A9
:10264000104C2078401EC0B22070A84219D0C0EBB8
:10265000C000C5EBC5012044214400F5AB72D0F8A1
:102660005201C1F852011088A1F85601907881F802
:1026700058012078FFF792FF082802D0204480F804
:10268000025170BD861500202DE9F0471D4C06460D
:10269000A7196078401EC5B2657097F802A1AE42D6
:1026A0002AD004EB051904EB061809F1020108F120
:1026B000020010220EF0E7FB09F1820108F182000E
:1026C00010220EF0E0FB601905EB450290F80211B4
:1026D00087F8021106EB460104EB420204EB4101CC
:1026E000D2F80A31C1F80A31B2F80E21A1F80E2150
:1026F00090F83A0187F83A015046BDE8F047FFF7F5
:1027000099BF0000861500202DE9F047044600F12E
:1027100080054FF0010971B104F1A6077E1E012961
:1027200029D002294ED0032923D139463046BDE8AD
:10273000F0470BF089BC4FF43E7200210EF01DFCF7
:1027400085F825902449E96620460721296710F875
:10275000EC1F21F004010170FE2085F8A6007F2007
:1027600068761E48A8600020C5E90000202084F893
:10277000A402BDE8F0874FF00008A4F8368284F880
:102780002B82216916480A460844B0FBF1F0C4F8D0
:10279000C40040F6B830A4F8C800638B284600F0A7
:1027A00021F8394630460BF04FFC0EF0EEFA18B126
:1027B000606900F0BDFB10B184F81A82D9E784F893
:1027C0001A92D6E70169B4F8DA32D4F8D42228464E
:1027D000BDE8F04700F006B82F4904C400E0FCFF54
:1027E0007FC3C90110B50024A0F84C4030F8504F09
:1027F0004C43B4FBF2F420F8104940F271246343D7
:1028000002EB03135B1EB3FBF2F3C381094BB3FB73
:10281000F2F35B1C83820389634302EB03135B1EA9
:10282000B3FBF2F3436003684B43B3FBF2F1016087
:1028300010BD0000005A6202024991F900100BF02D
:10284000B4BB00007403002008B57F208DF80000A1
:10285000684605F0C3FB40B105484078404241B2AC
:102860009DF900000BF0A1FB08BD9DF9000008BD1B
:1028700074030020014A10705170704774030020E7
:1028800070B590F8322090F83130012403FB01211B
:102890002522B1FBF2F302FB131100EBD10280F809
:1028A000321001F0070392F8262004FA03F31A42CB
:1028B00004D000BF80F83310002070BD90F83020A5
:1028C000B1FBF2F302FB1311491CC9B20023C51876
:1028D00095F82B208A4212D395F82650002200BF8B
:1028E00004FA02F6354201D0491EC9B221B1521C88
:1028F000D2B2082AF4D304E002EBC301DAE7891A62
:10290000C9B25B1CDBB2052BE1D31F2070BD0000F8
:1029100070B5491C0023C9B20124C518AA798A429E
:1029200012D395F80150002204FA02F6354201D084
:10293000491EC9B221B1521CD2B2082AF4D305E013
:1029400002EBC300C0B270BD891AC9B25B1CDBB216
:10295000052BE2D39D214620FEF72AF8417841B1AC
:10296000C0782B2803D2044A105C884201D1012090
:102970007047002070470000C410010010B501220C
:10298000C1702B2902D2064A525C06E0FF2904D00E
:1029900040F274412A20FEF70BF8427010BD00008F
:1029A000C41001000449897C490700D408B1002003
:1029B0007047012070470000881400200348807C85
:1029C000800701D401207047002070478814002040
:1029D0000348807CC00701D0002070470120704769
:1029E000881400202DE9FE43884699461546044682
:1029F00069460BF044F9E0BB019E002780367DB1AB
:102A00002046FEF7ADFC04000ED029460AF038FD42
:102A100018B11B494988A94208D20020BDE8FE83AD
:102A2000012086F8240024E0672125E0014602AA5F
:102A300020460AF01EFD02980780877096F8241041
:102A400009B14FF0020841460BF051FC02982A46AA
:102A50004946C01C0EF017FA204629460AF0C7FC6A
:102A600048B168460BF09EFC0198A0F8227286F8E7
:102A700024700120D2E77C212B20FDF799FF000074
:102A800088140020094882B0007A8DF80000009870
:102A900000909DF80000002805D102220449034857
:102AA00002B00BF0ABBC02B070470000A0140020D5
:102AB00043E400002DE9F84FDFF878915E4F83463C
:102AC0004FF0010A002678683546007A8DF800003C
:102AD000009800909DF80010102906D199F8131065
:102AE00019B1B9F81400002873D08DF80060684659
:102AF00000F006F99DF800100029F8D1002868D0F0
:102B00000446007A8DF80000009800909DF800803F
:102B100004F108000521009001704046B8F1080F4B
:102B200042D007DC02280DD0032817D0B8F1040FDB
:102B300005D11DE00F2852D0B8F1100F59D040F246
:102B40004A2165E0626832B1594620469047042028
:102B500060F3070510E040F2C31159E0626822B14A
:102B6000594620469047054606E04FF4E6714FE08F
:102B70006168B1B120468847C5F3072001284AD0D3
:102B8000EFF3108172B6207A8DF800000098009063
:102B90009DF80000052842D0B0B366F30705A1B345
:102BA00041E04FF4EB7133E060685D4698B1048812
:102BB0002046FEF7D5FB80B16E700D212970EC80A8
:102BC000A5F808A085F804A031460AF0F0FC04201E
:102BD0003E61BDE8F88FE5211AE0C52118E08BF8C9
:102BE000016016218BF80010D4F80910CBF80410FE
:102BF000ADE71248026822B1606838B100885946D2
:102C0000904702203E61E4E709E00BE04FF41071C9
:102C10001020FDF7CDFE00984146017003E02672BA
:102C20003E61BCE762B615F0FF0F3FF44CAFE8B26F
:102C3000CFE7000088140020B4140020C800002052
:102C40000149087000F0BEB876030020024901482F
:102C5000086070475D2C0000C800002038B50D00EA
:102C600014D0A88000216972FEF764FB04460AF0C4
:102C7000E2FB70B101466A4620460AF0FAFBE880A2
:102C800050B1FB280BD940F2231133E040F213116D
:102C900030E04FF48E712DE040F221112AE00098CF
:102CA0000BF0D1FA012804D0022802D040F23311EF
:102CB00020E028722868A8B10099EA88C91C0EF0A3
:102CC000E2F820460AF07FFB78B1204600210AF0A6
:102CD0006EFC68B10948C17C002902D0818A491E76
:102CE000818238BD4FF49D7104E040F23F1101E054
:102CF0004FF4A2711020FDF75BFE00008814002045
:102D000038B503461749002018700869012440B1FE
:102D1000027A8DF80020009A00929DF80050002D54
:102D200011D14868027A8DF80020009A00929DF82F
:102D30000050012D06D0EFF3108272B605684D6089
:102D400012B102E0002038BD62B6027A8DF8002090
:102D5000009A00929DF800500DB1086138BD1C70BA
:102D600038BD0000B414002038B5D0B1416000F186
:102D700008010A70EFF3108372B6104C0460211F33
:102D80004A684AB1127A8DF80020009A00929DF8A4
:102D90000050012D00D10C600A68106008602BB152
:102DA00005E040F275211020FDF702FE62B60448EE
:102DB0000078BDE8384009F031BC0000B8140020AC
:102DC0007603002010B51422002108480EF0D5F833
:102DD00006481222002114380EF0CFF803480121D2
:102DE0000173011D4160016010BD0000B41400209A
:102DF000F0B450810C8994818B89D38148891082E9
:102E0000CD895582CE8DAE4208D14D8D854205D1FA
:102E10000D8E9D4202D18B8DA34201D0012300E093
:102E2000002313754885508AC88590898885D08984
:102E30000886F0BC014910460BF0DABA612E00009A
:102E40005081888A9081C88AD081088B1082488BF3
:102E50005082024910460BF0C8BA0000A12E0000B3
:102E600038B5A0F11804007D0D4600F00100FFF711
:102E700099FD002108B100910CE0697013202870C1
:102E800054F8220F68606068A860A068E860034892
:102E900040680090BDF8000038BD0000282F0000F9
:102EA00070B586B00E460446FFF788FD002558B37E
:102EB000A4F5BC702572048803A920460DF036F8ED
:102EC00008B1FE2117E0ADF80040BDF81200ADF8E2
:102ED0000200BDF81400ADF80400BDF80E00ADF816
:102EE0000600BDF81000ADF8080068460DF05AF86D
:102EF00020B140F207112C20FDF75AFDCDF800500B
:102F0000BDF8000006B070BD1B203070757054F81D
:102F10000A0F70606068B0602089B0810148006865
:102F20000090EDE7282F00000400000004000000DE
:102F3000F0B56FF01F02010C02EA90261F25A1F5E3
:102F4000AA4054380DD0A1F5AA40553809D0A1F5B2
:102F50002850AA3805D0A1F52A40AA3801D001206E
:102F600000E00020002213464FEA020482EA010733
:102F7000FF431F437F1C0FD006F00107520842EAAF
:102F8000C73205F001075B0876086D08641C43EA48
:102F9000C733162CEAD3F0BD0020F0BD10B50448AD
:102FA0000BF047FB0248BDE8104008300BF041BB76
:102FB000CC000020014800F009B80000CC0000203F
:102FC000014800F003B80000D400002010B5D0E99B
:102FD0000021094B094C53435443514081EAB2123A
:102FE00082EA41224FEAF141C0E9002143EAD46379
:102FF00003EB8303184610BD6037EFC6BB79379EDD
:1030000070B54468091D002594F88C008034C00711
:1030100001D0012070BD486809680C4B41F60702D9
:103020001940E166104020671B2104F16C000BF091
:1030300026FCA4F8585094F85A00401C84F85A0012
:10304000E06840F00100E060002070BD2F4904F707
:1030500010B5041D04F004FA034B41F607021840B2
:1030600011402060616010BD2F4904F72DE9F8433D
:10307000037840680F1D00F1800500F5A574064631
:103080004FF000086A7F072128460AF00FFEE0B1E2
:103090003968184B7868194041F60702E966104014
:1030A00028671B2105F16C000BF0E9FB85F85680C1
:1030B00085F81D8094F8681040468DF8001000993E
:1030C00000919DF8001091B902E00120BDE8F8835D
:1030D0003188A4F86A1084F869003968E166796873
:1030E00021670222044904F160000BF087F90020F7
:1030F000ECE700002F4904F7EBE8000070B50D1D68
:10310000446804F0ADF941F60702054B114094F80C
:10311000EC201840024062F307002860696070BD2F
:103120002F4904F7416882B001F5A57091F8B221EA
:103130008DF80020009A00929DF80020002A0BD103
:103140000988A0F86A101A2180F869100222034940
:10315000603002B00BF052B902B07047EBE80000EB
:1031600070B544680D46037894F89D20803400269D
:10317000082120460AF09AFD20B9207B800701D55E
:10318000012070BD94F85D00800719D428460BF02B
:10319000C8F884F8670035F8050FA4F86800688857
:1031A000A4F86A0094F85D0040F0020084F85D0025
:1031B000C00709D00222114904F15E000BF032F978
:1031C00094F85D00C00710D1E068810703D54F2156
:1031D0004020FDF7EDFB40F00200E06094F85A005B
:1031E000401C84F85A00A4F85860607F012802D17E
:1031F000667784F85660002070BD000099E90000F1
:10320000044A9268C2F580534B43424303EB223099
:1032100070470000DC000020F8B54468064604F161
:10322000800500F07BF894F8281001291AD10028B5
:1032300018D0706890F852118DF800100099009124
:103240009DF8001000F5A57000290BD1218841815F
:10325000697E0173A97E4173BDE8F84002220249EC
:103260000BF0CCB8F8BD000021EA000000F50061C9
:103270000D4A10B500F50060091300134BB292F926
:1032800000404042002140B2A34202DA92F902100B
:1032900005E092F90140A34204DD92F903100844CD
:1032A00000F30701084610BDDC0000202DE9FC41B9
:1032B000A0F5FA75A0F5BA7495F86B000CF068FAF1
:1032C0000646A068FFF7D2FF070021D020460BF08A
:1032D000AFFB00281CD0288869460AF0D0FC18B142
:1032E00085217A20FDF764FB761CF1B202233A4671
:1032F00068460CF06CFA00280AD1064806490079A5
:10330000A0FB01650DF02DFC80196941C4E90001A5
:10331000BDE8FC81DC00002040420F002DE9F041B7
:103320000746FFF791FA7C68054684F899008034D7
:103330007F2842D094F833007E68A0762946A068A2
:10334000FFF75EFFA0601E484079C0B1786800F1C9
:103350008008D0F88800FFF789FF80B140460BF065
:1033600067FB60B1786800F5A578074604F0A2FC19
:1033700087F86B00134908F1AA000BF03CF894F9A8
:103380001B000021281A00D5404296F829208242CD
:1033900010DCFF2A0ED0207F401CC0B2207796F8A8
:1033A0002A20904202D8E07E7F2803D10020E576D3
:1033B000207701210846BDE8F0810020FBE70000EE
:1033C000DC000020AD320000F8B50BF04DFB0446E8
:1033D0000D466A4600F062F808B10120F8BD0F48BA
:1033E000037841788B4201D10020F8BD1A4641682C
:1033F00008E000BF01EBC206521E56E9027CC6E996
:10340000007CD2B29DF80060B242F3D8F2B201EB78
:10341000C2015B1CC1E900450370DEE7E800002043
:1034200010B5420703D063214820FDF7C1FA20B14F
:10343000034A5170506000201070C80010BD000099
:10344000E800002038B50BF00FFB6A4600F026F8C4
:10345000002814D00A4A1078401EC1B211709DF89D
:103460000000526808E000BF02EBC003401CD3E933
:103470000245C3E90045C0B28842F5D3012038BDFA
:10348000E80000200149002008707047E800002093
:103490000148407870470000E8000020F0B5204D5A
:1034A000002313702B7823B300245B1EDBB2D5F806
:1034B00004C00BE0E5186D080CEBC506D6E90076F4
:1034C0003F1A8E4101D22C4600E02B461D1B012DD8
:1034D000F0DC0CEBC406D6E9005680EA050781EA69
:1034E000060E57EA0E0705D0451B71EB060503D201
:1034F000147010E0147011E00CEBC305D5E9004521
:1035000080EA040681EA05073E4306D0001BA94174
:1035100000D35B1C13700020F0BD13700120F0BDC0
:10352000E800002070B50446007C00B302281ED0DD
:103530005FF0010004F1510184F850000D46C0B164
:10354000E07DF0B1D4F81100C4F85100B4F81500D2
:10355000A4F85500207C0BF0B7FA2076082060769E
:1035600094F8500029460BF09BFAA8B90EE0002011
:10357000E0E70020FEF780F90028EBD140F2BA41E5
:1035800001E040F2BE412D20FDF712FA94F8500000
:1035900029460BF08EFA00B10120A076207E30B1D2
:1035A00094F8570004F158010AF032FB6076FEF7F8
:1035B000B5FF0C49A0FB012304F148000BF0F6FB1A
:1035C000002120460BF0ABFB002084F85E00A078C1
:1035D000400705D52046BDE87040002100F0F0BD51
:1035E00070BD000040420F0030B50C468DB005465E
:1035F0000146242202A80DF046FC0BA80BF033FC78
:10360000A07A8DF8180020788DF80800B4F8010031
:10361000ADF800009DF8000000F00101C0F3400289
:1036200041EA4201C0F3800241EA8201C0F3C002D4
:1036300041EAC201C0F3001241EA0211C0F3401294
:1036400041EA4211C0F3801041EA8010ADF80A004F
:10365000207D012806D0022804D040F2E92106206E
:10366000FDF7A6F98DF80C00617A0BA80BF0E2FBD0
:10367000207D0121022802D1607D401CC1B2A07EC4
:10368000401CC2B20BA80BF09CFBBDF80A0000075F
:1036900001D5002020E00BA80BF0A5FBBDF80A1017
:1036A000282200F031FE40F2712100F2DB20B0FB55
:1036B000F1F04843D4F8021040F271230A0A40F2B4
:1036C00071214A43D4F80510090A5943904201D8A0
:1036D000049204E0884201D8049000E00491A07CA8
:1036E0008DF81700207E012800D000208DF81400EE
:1036F000686B0AF0F5F8686B0AF09AF9242202A9BF
:1037000028460DF0C0FB0B98A862BDF83000A885D4
:10371000E07A68B102280BD05FF0010085F857000D
:10372000E068A865208AA5F85C000DB0002030BDD7
:103730000020F3E70A4A10B500211170094C6060BF
:1037400000F022F810B140F22E3104E0A068002809
:1037500004D140F231312D20FDF72AF910BD0000CF
:10376000C8140020F000002002490148886070471A
:10377000F0420000F00000200249086089680968F2
:1037800008470000F0000020084810B5007810B18C
:103790000C24204610BD00241822214603480DF0B9
:1037A000ECFB04F0D9F803F0FDFEF2E7C8140020AA
:1037B000044910B50978012901D100F0D5FB00209A
:1037C00010BD0000C814002002490148086070477D
:1037D00095400000FC00002010B504468078C0F33E
:1037E000C00058B13C23FF222046E16900F0E2FB13
:1037F0000222044904F16C000AF000FE012084F862
:10380000690010BDB7EC00002DE9F0410F0004463F
:1038100023D004F1280005460BF00EFBB0B9A078C8
:10382000C0F3C00050B328460BF0DDFA0646284628
:103830000BF002FB301AC0B20BF053FB01463548C7
:1038400042681144416028460BF014FB28460BF0F7
:10385000D6FA014620460BF09EFA2F4D94F85E6092
:103860000021686801800BF00FFA6088132813D0DC
:1038700009DC102836D0122809D131E02046BDE8F5
:10388000F04100F071BB15280FD01D280DD040F27B
:1038900073612D20FDF78CF8002168680AF02CFC7C
:1038A000012168680BF0F0F920E0012168680AF056
:1038B00023FC012168680BF0E7F936B104F15F01E0
:1038C00068680AF034FC012106E004F158016868D8
:1038D0000AF02DFC94F8571068680AF02EFC05E0F9
:1038E000062100E0022168680AF006FC204600F08C
:1038F000DDFC60881D2807D0152805D094F83C20F1
:10390000A16B68680AF0E8FB39462046BDE8F04143
:1039100000F0F4B9C8140020F00000202DE9F041B7
:103920002F4D80462878022805D02878032802D019
:1039300040F62D512BE02B4C2668307B18B1FEF75A
:1039400083FF86F82E00D4F804C00027B8F1000FDA
:103950009CF8000000F00F0627D02168C00901F193
:10396000510391F850200CF109010AF0B9F8E0B1C7
:10397000394660680AF0A0FBB8B12A782068314661
:10398000022A07D02A78032A04D040F606512D20B7
:10399000FDF70EF8A2682B7852696FF0070606EB68
:1039A0008303D2589047064600E00126A87B18B151
:1039B00003F0D2FF03F0F6FD002E0FD020680BF0CD
:1039C000A6FA30B103F0EAFFA0688068BDE8F041D4
:1039D00000472068BDE8F04100F0C6BABDE8F081BC
:1039E000C8140020F000002010B5032902D00529DA
:1039F0000AD102E000F0B2FB03E00449096809B112
:103A0000884708B1002010BD012010BDFC00002037
:103A1000094A0300106801D000F0A6BA002909D0B5
:103A20009168064A096912786FF00F0303EB82026E
:103A30008958084770470000F0000020C814002093
:103A400070B504464088102819D0104DA87B20B1CD
:103A500003F0C8FD402003F08DFF0D48406804F0DE
:103A60000FFAA078400704D400212279084604F018
:103A70008FFA002004F0B4F80220287070BD2046B0
:103A8000BDE870400121FFF7BFBE0000C814002050
:103A9000F000002010B5124C206800F025F82068D6
:103AA0000BF035FA002820680BD00E490A78022A5C
:103AB0000BD00A78032A08D040F637412D20FCF7B6
:103AC00077FFBDE8104000F04FBAA2680978D268CD
:103AD0006FF0070303EB81015158BDE81040084720
:103AE000F0000020C814002010B5017B21B104466D
:103AF000FEF7AAFE84F82E000548807B002805D03A
:103B000003F02AFFBDE8104003F04CBD10BD0000DB
:103B1000C81400202DE9F0415C4D044686B0287899
:103B2000E8BB2078FF284BD04FF00008A5F80C80A8
:103B3000C5F8048085F8018085F8028084F86980E2
:103B4000534B544E0FCB8DE80F00B0684068039084
:103B5000684604F019F804F0EDF803F0FDFE03F0F8
:103B600021FD4D4804F046FA4C4804F04DFA04F1AA
:103B7000280007460BF07EF938460BF040F9014665
:103B800020460BF008F994F90E0004F057F921795A
:103B9000002003F08DFF0121A860A8B100E00FE034
:103BA00004F13801606B09F00AFF074604F1400197
:103BB000606B09F007FF4FB194F8201051B905E090
:103BC0000C2006B0BDE8F08129705CE020B194F8CB
:103BD000210008B1012700E00027A07E20B9207E47
:103BE00010B9A078400723D5D4E912106FF0004235
:103BF000504070EA010106D00CF0B3FFD4E9122363
:103C0000801A994100D29FB1FEF788FC2449A0FB9D
:103C1000012304F148000BF0C9F8012120460BF004
:103C20007EF8A078400703D50121204600F0C8FAAD
:103C30007068C01C09F0DFFFA873A078C00722D00D
:103C4000CDF81080FF20CDF81480E873E66906F106
:103C50000A0713E0049CB44210D0727A607A3B46A3
:103C600004F10A0109F03CFF40B1A078E873D4F8F0
:103C700003002861B4F80700A88204E004A8FDF757
:103C800017FA0028E6D000209BE70000C8140020A7
:103C9000D0420000F0000020D6BE898E5555550058
:103CA00040420F0010B50446FFF734FF002808D14A
:103CB00004480078012803D000212046FFF7A4FD26
:103CC000002010BDC81400200A4810B50A49046835
:103CD000087800280DD00878022802D00878032838
:103CE00002D12046FFF700FF2046BDE8104000F05B
:103CF0003BB910BDF0000020C81400202DE9F041B0
:103D0000044629480D46406804F0BAF8274E0420BE
:103D1000307055B36088102823D004F12800804605
:103D2000B5680BF060F8074640460BF085F8381A86
:103D3000401EC0B26188282200F006FB0544A0782E
:103D4000C0F3C00030B1706805440BF0CEF82844D1
:103D5000C4F8D80022792946002004F0A7F820B939
:103D60000CE02179002003F069FE6088132811D04F
:103D700007DC102815D0122807D10BE040F6A85117
:103D800005E0152806D01D2804D040F6BC512D2092
:103D9000FCF70EFE2279BDE8F0410121002004F07D
:103DA000F7B8BDE8F0810000F0000020C814002042
:103DB00038B5044690F8BC000B468DF8000000981A
:103DC00000909DF8000000283AD1207884F8BD00CA
:103DD000FF2B10D004F1BF02511E1846FEF720FB46
:103DE00030B194F8BE0040F0020084F8BE0011E04B
:103DF00041F2180121E0134840680178C1F38011B5
:103E000084F8BE10D0F80310C4F8BF10B0F8070053
:103E1000A4F8C30094F92E007F280CD084F8C500C4
:103E20007F2084F82E0004F1B400BDE8384002225F
:103E300005490AF0E3BA40F66C612D20FCF7B8FDA5
:103E400038BD0000F000002007ED00002DE9FE4322
:103E500016460446032904D094F8680008B10120EE
:103E600000E000200025032903D00127052905D003
:103E700008E0A1780227C1F3400101E0A178C90759
:103E800000296BD0002869D13548DFF8D890807BB5
:103E900080B109F0B3FE3070FF2814D0C0B26A467A
:103EA00002A9FEF7BDFA48B169469DF808000AF07C
:103EB000D4FD05463078FF2805D00DE040F69B7113
:103EC0002D20FCF775FDD9F8041011F8030BC0F391
:103ED00080100AF0C2FD0546D9F8041094F8572066
:103EE00004F1580311F8030BC0F3801009F0F8FD3A
:103EF000D9F80410804611F8030BC0F3801009F0C4
:103F000087FE8146FEF71EFB38B14846FEF75CFA95
:103F100018B110210AF036F838B100213078FF28A6
:103F20000CD0B8F1000F05D101E00121F6E7627E67
:103F3000824201D1012003E0002001E028EA0100D3
:103F4000A278520701D530B908E039B91DB9E07B34
:103F500008B1B84202D10120BDE8FE830020FBE792
:103F6000C8140020F000002070B50446008E104DEB
:103F7000401C2086A87B002620B103F0EDFC03F056
:103F800011FBAE732E7094F8690008B101210AE0AC
:103F9000607B38B1218E884204D8012120460AF086
:103FA000C8FF70BD00212046BDE870400AF0C1BFC7
:103FB000C81400202DE9F041044680F875300888C7
:103FC000A4F87600FF2084F893004FF6FF701646A1
:103FD0000D46A4F89400002B4BD1286909F060FE2F
:103FE000A4F88C00288BA4F88E00688BA4F89000AD
:103FF00095F81B0284F89200207E04F151010F46CF
:10400000002520B194F850000AF053FD40B994F80F
:104010006A0070B194F8500039460AF041FD40B191
:10402000D4F85100C4F88000B4F85500A4F8840016
:1040300003E0C4F88050A4F884501548FF2E40686F
:104040000178C1F3801184F8791050F8031F17D05C
:10405000C4F886108088A4F88A0004F17A02511E00
:104060003046FEF7DDF930B114F8790F40F0020068
:104070002070BDE8F08140F68B412D20FCF798FCC4
:1040800044F87A1F8088A080E5602582F1E700006F
:10409000F0000020F8B50446FF208DF8000001264E
:1040A0006A4605212046FFF7D1FE60B1284D274F13
:1040B0006968FA7B07F1100311F8030BC0F3801055
:1040C00009F00EFD10B100263046F8BD6A68E069BF
:1040D000127810F8A51FC2F340121140017001229E
:1040E0002046E16900F09AF800239DF80020204660
:1040F000E169FFF75FFF0222164904F16C000AF044
:104100007DF9E06902220188A4F8B01090F8A500BA
:1041100084F8B200104904F1A6000AF06FF90021FA
:10412000E06939700A46214600F07AFA6868E16968
:10413000D0F8032041F8032FB0F807208A800078D8
:10414000E169C0F380108870BEE70000C814002049
:10415000F0000020B7EC0000A7EC0000F8B5044622
:10416000FF208DF8000001256A4603212046FFF755
:104170006DFEE8B1207B20B19DF800102046FFF7CE
:1041800017FE0D4E002170680180042109F0B4FF74
:10419000204600F08BF894F84420216C706809F0F8
:1041A000E2FF064905200870706803F069FE00E030
:1041B00000252846F8BD0000F0000020C8140020AB
:1041C00070B504460E46407EFEF7FEF8050019D095
:1041D000102109F0D7FE002814D1012084F85E00D8
:1041E00004F15F0132460C46284609F0A9FC21463D
:1041F000054C606809F09BFF6068BDE870400121D4
:1042000009F09BBF70BD0000F000002002480121B2
:104210000068FFF7F9BA0000F00000202DE9F04136
:10422000214E80460C467068154650F80F1F61619C
:10423000416821F07F41E161408909F02DFD074689
:10424000206170683946807D09F093FEA084706813
:104250003946B0F8170009F088FE2062706830F81F
:104260001B1F2183418861834168C4F8A610017A2D
:1042700084F8AA10417A01F01F0184F8B110407A45
:10428000400984F81B0204F1620005724572FF21A7
:104290008172002136380AF024F998F90E10204670
:1042A000BDE8F04109F0CCBDF000002070B5074D2D
:1042B000044600F15101686809F046FF94F8501077
:1042C0006868BDE8704009F045BF0000F0000020BC
:1042D000953A00001D390000113A0000000000006E
:1042E000E9390000413A00009BEC0000A1EC00001D
:1042F000A53C0000C93C00000D420000EC4200005B
:10430000E4420000E042000010B5421E022A01D93A
:10431000CA2109E0401E102909D012290CD0132906
:104320000AD0152905D0D8212F20FCF741FB0549DB
:1043300004E00449891D01E00249891F31F8100099
:1043400010BD000002EF0000421E10B5D2B2012ADB
:1043500003D91D2901D0EE210DE0132913D004DC6F
:1043600010290BD0122904D10DE0152908D01D29E0
:104370000ED04FF481712F20FCF71AFB074804E0A0
:104380000648083001E00548001D30F8120010BD55
:1043900040F25A3110FB01F010BD0000F0EE0000B9
:1043A0002DE9F041044690F8E00016460F4600283B
:1043B0005ED121464D4806F03BFD0546202857D0EA
:1043C0005022002104F1C8000CF0D7FD84F8C85039
:1043D0000125C4F8CC7084F8E05037B1FEF7F0FD49
:1043E00000F00700401C87F84C0220460AF04EFF00
:1043F000A4F8F000022084F8F200A84684F8F350F4
:10440000002504F8E85F07F079FE07460CF0A0FBF2
:104410002189E83C884200D808463844CE3087B22B
:1044200020460AF0F9FB30B30CF082F900F5CD60BC
:1044300081B2304607F082FF3044C4F8EC0090347B
:104440000CF08FFBC0196941C4E91A0184F840805F
:1044500024F86E5C01200AF044FD00F21510301AB9
:1044600060644FF0FF304108C4E91E01903C25E034
:104470000C20BDE8F081002120460AF05BFEDFF849
:104480007080C4F8EC000020B8F8041049B1618CC9
:1044900039B1FEF795FDB8F80410B0FBF1F201FB5D
:1044A000120007440CF05DFBC0196941C4E93E01EC
:1044B0009EB1801951EB0501C4E9420194F8C8008E
:1044C00004F1E8010AF0E0FE58B1A4F8005100211F
:1044D00020460AF0D1FB0020CBE74FF0FF30410827
:1044E000EAE74FF4F7713020FCF762FA6DF3000051
:1044F0000001002001498880704700000001002071
:1045000005480021017001228270417042F2107151
:10451000818000F003B80000000100201CB50949AB
:10452000D1E90001CDE9000102E000980AF015FD93
:104530006846FCF7BDFD0028F7D000F0C7F8002062
:104540001CBD0000644E0000014908707047000067
:104550000001002008494FF47A72B1FBF2F110B566
:1045600001F5287109F0D6FF40F64801884200D3D2
:10457000084680B210BD00007D52010010B503F066
:1045800093FB05498A68904201D8487808B1002019
:1045900010BD012010BD00000001002010B5044630
:1045A000062938D2DFE801F0051103141532002185
:1045B00006E0D4F8AC0210B120460AF0F8FD012163
:1045C0002046BDE8104000F07FB9032084F85C026B
:1045D00010BD03F075FBC4F8AC0294F86B0003F057
:1045E00033FCD4F8AC12884204D940F2E3313020D5
:1045F000FCF7DEF994F86B0003F026FCD4F8AC125B
:10460000081A06498A681044886010BD2046BDE833
:1046100010400AF0B9BD40F29971E8E700010020AE
:104620002DE9F0410C46804612B140F2C37137E0EB
:1046300003F03AFB0746002084F8D000D4E93E5648
:1046400084F8E000012084F8E100D4F8CC000121D6
:10465000C834FEF759F854F8040FC0F89052C0F867
:104660009462216814F8040C81F8A4022068C0F850
:10467000A8722068C0E9A65654F8CC090AF01FFFBA
:1046800010B14FF4EA610BE00AF08AFD94F8C8001B
:104690004246064906F084FA002804D140F2AC7183
:1046A0003020FCF785F9BDE8F0810000D9F3000067
:1046B00010B50C2804D340F28A310620FCF778F9B3
:1046C000014931F8100010BD804E00002DE9FC4179
:1046D000164D0120687000244FF6FF760BE0002194
:1046E000FCF794FC070009D097F8A40206F088FABA
:1046F00038460AF02EFE009401940EE04FF49171BA
:104700003020FCF755F9009838B190F8A412202910
:1047100003D00088B042E2D104E06846FCF7C8FC50
:104720000028F0D06C70BDE8FC8100000001002082
:104730002DE9F047044639481E4690468078894660
:104740000025002863D007F0AFFDE0B3B4F84802BD
:1047500002285CD394F85C02022858D094F87202C4
:1047600088BB94F81B02FFF7A3FF00F5C86081B275
:10477000318094F85C02002701280DD0206907F0F1
:10478000DDFDB4F836224244A2EB0901D4F86422DC
:10479000821A01FB027535E094F8A100032839D094
:1047A0000121002009F03AFB216A47183188D4F82A
:1047B000540207F0C3FDD4F85022D4F85812821ADC
:1047C00001FB025500E022E0C4F85002318838466F
:1047D00007F0B4FDD4F86012C4F86002411A0D4429
:1047E0003188206907F0AAFDB4F836224244A2EBD2
:1047F0000901D4F85822891AD4F86422821A491E71
:1048000001FB0255C4F86402012084F872022846B4
:10481000BDE8F087D4F85402C6E70000000100208C
:104820002DE9F041054690F86B0028210AF028FC9C
:1048300000F52C780CF08CF9692800D86920D5F89F
:104840006412A0F169032A690B449A4203D9511AF0
:104850000C1A693400E000241A4F387818B9E86A55
:10486000A04200D8044605F12C0009F05EFE064681
:1048700095F86B000AF016FED5F830123044461851
:10488000A41B002C00DC0024022005F08BFA8442DB
:1048900000D304460221204605F094F900B92644CD
:1048A00042463146284609F0E1FDB86095F86B00B4
:1048B0000AF0F8FD301ABDE8F041A0F5B77006F037
:1048C000B7BB00000001002038B5002504460129CF
:1048D00002D11048407870B1042084F85C0200BF17
:1048E0000AF05EFCA4F8A252B4F89400A4F86E0298
:1048F00084F8715238BD0095B4F8241201230022C7
:10490000204600F009F80028EAD040F20E7130206D
:10491000FCF74EF8000100202DE9FF4F8BB0044654
:1049200090F86B0099460F46079305900BF000FF37
:10493000054694F81B02FFF7BBFE2844ADF80400BF
:1049400094F89E000D2804D0002008900D9810B116
:104950002EE00120F9E794F85C02032828D108989A
:1049600030B3B4F8CC02B84222D1D4F86402C4F80F
:1049700050022069C4F85402B4F8A202B4F8361206
:104980000844C4F85802204600F086FAD4F8D00251
:104990002062B4F8CE02A084D4F8D4022061B4F826
:1049A000D8022083B4F8DA026083022084F85C0223
:1049B000B4F8940004F51E75381A0FFA80FAB4F8AA
:1049C000A002381A0FFA80F8B8F1000F08DAD4F80C
:1049D0009002D4F89412D046C4E9A60101200790B1
:1049E00001AB524641462046FFF7A2FE049094F8E0
:1049F0005C02DFF834B340B101287DD0022851D0E9
:104A000003287AD040F28E518AE10121002009F07A
:104A100005FA0646206ABDF80410304407F08EFC03
:104A2000C4F86002BDF80410206907F087FCC4F8E0
:104A3000640207A906A803F09FF8D4E9A601DDE9FE
:104A4000062306F0C7FB824620460AF09DFB94F839
:104A50006B00D4F8A88203F023FA4AF2A131014492
:104A60004FF47A70B1FBF0F0216AD4F8602231443F
:104A7000081A811A41442039A1EB0A065000A18C82
:104A80006030014494F86B000AF0ECFB2230CBF864
:104A90000C00D4F8A802301AB0F5E47F58D240F2E6
:104AA00027513DE1216AD4F854020844BDF80410AE
:104AB00007F044FCC4F86002BDF80410206907F058
:104AC0003DFCC4F8640220460AF05EFBB4F83602EE
:104AD00010BBB9F1000F1FD094F86B80404603F073
:104AE000DFF94AF2A13101444FF47A70B1FBF0F0E2
:104AF000D4F86012084401E02BE047E0226AD4F8C1
:104B0000541211440E1A404603F09EF9D4F8AC1228
:104B1000081A0644203E06E0216AD4F854020844EC
:104B2000D4F86012461AD4F85822D4F85012D4F8A7
:104B3000600201FB02004000A18C6030014494F847
:104B40006B000AF08FFBCBF80C00012084F85C02AC
:104B500061E0D4F864222069B4F83612861A01EBB9
:104B60000A00D4F85812D4F850C2401AD4F860326F
:104B7000401E0CFB013100FB02104000A18C603094
:104B8000014406FB08F694F86B0040E02069D4F875
:104B9000641200FB08F008FB110694F89D0025281C
:104BA00003D094F89E00252809D1B4F8CC02381A15
:104BB00000B2002803DB94F8CF0200B105900798FB
:104BC000D8B1B4F83602C0B9D4F8AC0200287DD010
:104BD00094F86B0003F064F94AF2A13101444FF4F8
:104BE0007A70B1FBF0F0361A94F86B0003F02CF9F0
:104BF000D4F8AC12081A0644203EB4F8361201EB81
:104C00000A00D4F8641248434100603105980AF064
:104C100029FBCBF80C000498DBF80C20311AD4F8EF
:104C200064622069801BA0F25220CBF810008242FF
:104C300000D81046C4F8300200262E706920288162
:104C4000D4E9A62051187041C5E9041004F12C00E4
:104C500009F06BFCD4F8301208446860D5E904010F
:104C6000C4E9A601A4F8A072AE72B4F82002C01B79
:104C700000B2002801DD0220A872089838B3B9F10B
:104C8000000F1CD0B4F84812F1B3B4F84A0200BFC8
:104C9000A4F84A0294F84C22401C42438A420ED2A5
:104CA000A87A60B1AE72B4F84A02401CA4F84A0275
:104CB000FEF780F900F00700401C84F84C0294F8DD
:104CC000A40229460AF0E0FA40B301E009E00BE053
:104CD0000D9880F0010084F8700200200FB0BDE84C
:104CE000F08F40F279511BE0B9F1000FCAD194F86E
:104CF0005C020028E3D0D4F864122069411A2846E7
:104D000009F0A2F8000400E006E0000CD7D01899E2
:104D100001B108800120E1E70020B9E740F2D75156
:104D20003020FBF745FE0000000100207CB5044662
:104D30000BF017FFD4F89032D4F89422C01A61EB2C
:104D4000020100221346121A8B4102DB40F2546129
:104D50004DE0421C71F1000102DB40F2556146E07A
:104D6000226900210AB1B0FBF2F194F89E000D28EF
:104D7000B4F86E021BD0B4F894205318C31A1BB2B7
:104D8000002B01DB401C01E0491C5018A4F86E0206
:104D900094F871028DF80000009800909DF80000D2
:104DA00040B9B4F86E02B4F82412884202D1401C13
:104DB000A4F86E02B4F8A202401CA4F8A202B4F84F
:104DC000CE00B4F8CC10401AB4F89410401E084439
:104DD00085B226E001A8002300901A462046FFF77E
:104DE0009BFD00283AD0012804D040F29461302085
:104DF000FBF7DEFDB4F86E02B4F82012421A12B2CC
:104E0000002A09DABDF804200244AA1A12B2002AC4
:104E100002DAA4F86E1204E0BDF804100844A4F805
:104E20006E02B4F86E12681A00B20028D2DA94F852
:104E3000A10088B15FF0080084F8BD000222084993
:104E400004F1B40009F0DAFA20460AF0AEFB20467D
:104E5000BDE87C400AF07DBA3E20EDE77CBD000055
:104E6000B9E60000000000000000010000000000A2
:104E70000000010000000000141E000030110000BE
:104E8000F401FA00960064004B0032001E0014008A
:104E90000A0005000200010010B50446D0F8D40253
:104EA0002169884209D1B4F8D812228B914204D1E9
:104EB000B4F8DA12628B914214D02188A4F8CA1196
:104EC00008F0EEFEA4F8CC01B4F8D802A4F8CE01A4
:104ED000B4F8DA02A4F8D0010222074904F5DF7021
:104EE00009F0A0FA02212046FDF70EFC002004F88C
:104EF0009E0F0320E07010BD47E7000006480549FB
:104F0000016506494165074805490165064941654E
:104F100070470000F56100002C010020DD620000F8
:104F200069E70000D80100202D6700001E481D49D8
:104F300081601E4941601E4901601E4981621E490F
:104F4000C1621E49C1601E4981611E4901631E493B
:104F500001621E49C1641E4981641E4941641E49A3
:104F600041631E49C1611E4941621F481D4981605C
:104F70001E49C1611E4941621E49C1621E4901614B
:104F80001E4941611E4941641E4941631E498161B8
:104F90001E4901631E4981641E49C1641E49816323
:104FA00070470000416600002C010020DD5F00001A
:104FB00049600000E962000023F60000096100007A
:104FC00019660000D9660000A961000061E90000CF
:104FD00019E9000091650000C56500004D660000FC
:104FE000B561000029E70000D80100201968000021
:104FF000F1F60000F5F60000CBF600005DF70000CA
:105000006D6700003BF70000A56700007BF700001C
:105010003DE9000087E9000059F70000064805490E
:105020008165064901660748054981650649C165EC
:1050300070470000396300002C0100201D6400004F
:1050400065070100D80100201BF70000F8B57C4C73
:105050000121A4F110062170002560607580757033
:10506000357080F82B120088FCF77AF980B16068FF
:105070000088FCF7DDFB60680088FCF781FB606856
:10508000B0F82212C9B180300AF09EFA18B114E0CB
:1050900040F69F416CE0606890F830118DF8001088
:1050A000009900919DF8001039B190F89F200123DC
:1050B0001946803008F0FAFD80B1606880300AF04F
:1050C00083FA28B1606890F8260100BF00F084FBE5
:1050D000606890F82D1289B1B5801EE06068A0F874
:1050E000D05090F8311180F828110021022000F0F2
:1050F00039FE606880F82A520220E7E790F8C6116E
:105100008DF80010009900919DF8001019B9C18C1C
:10511000028B914200D8018BB180B0F82612491E53
:105120008FB2B0F828123944A0F8281230F8CC1FFA
:105130003944018001F0A0FB20B1606850F8C01F25
:10514000394401606168B1F82202012802D8401C8C
:10515000A1F822020FB181F8345281F82A52B1F835
:10516000262201F1800008F04DFF20B140F6E64113
:105170003120FBF71DFC606890F89E100A2901D0D1
:105180000B2919D1B0F89420B0F8CC32D21A12B24F
:10519000002A11DBD0F8CE12C0F8A61090F8D21277
:1051A00080F8AA100321FDF7AFFA606880F89E50DE
:1051B000FF2180F8F41026E0252911D1B0F89410D1
:1051C000B0F8CC22891A09B2002909DB80F89E5078
:1051D00000F082FE0028606880F83C5129D012E07F
:1051E00090F89D10252901D027290CD1B0F89410F2
:1051F000B0F8CC22891A09B2002904DB80F89D504E
:1052000000F06AFEA8B10F480090D6E904010E4BE9
:105210000E4AFCF79BFB60680123052190F89E2055
:10522000803008F043FD002809D0BDE8F840FCF7C5
:1052300087BBBDE8F8400021084600F09FBBF8BDE1
:10524000240100207D590000CD540000255E00009F
:105250001D4908B5496891F89E20C0B1112A06D0B1
:10526000152A07D0162A09D01C2A28D109E00121C5
:105270000B2008E014480AF0E0F906E000F090FD89
:1052800003E00121062000F06DFD012008BD222A67
:1052900004D02F2A13D101211120F4E791F83C0109
:1052A00002280ED091F83C01012808D191F83D0167
:1052B0008DF80000009800909DF8000008B10020D3
:1052C00008BD01211720DEE72401002038B50028A1
:1052D00073D13B4C6068D0F88C10CA0702D0012112
:1052E000092066E08A070AD501210C2000F03AFD6A
:1052F000606810F8DD1F41F0010101705BE04A07B2
:1053000002D50121132054E00A0706D590F8201198
:1053100080F82811012107204BE011F0300F44D014
:1053200090F833118DF80010009900919DF800104D
:10533000C1BB90F8321100258DF800100099009142
:105340009DF80010C1B190F89E1025292BD090F83F
:105350009D10252927D0002300F2CE2200F5997157
:1053600009F076F8606850F88C1F21F0200141F0B8
:105370001001016080F8A650606890F88C10C90692
:105380001BD509F080F80E4809F03EFA616801F17A
:105390002C00C28BA1F82821408CA1F82A01012100
:1053A000152006E009E00123D6E7480605D50121CE
:1053B000242000F0D7FC012038BD002038BD0000BB
:1053C0002401002070B50D46064608F076FF04461D
:1053D000304608F074FF294600F01EF8B8B12046A8
:1053E00008F00EFD01000DD00A48406890F86B20CF
:1053F0008A4207D090F83C11012905D090F8670047
:10540000204204D0012070BD90F83F01F8E7002051
:1054100070BD00002401002070B50D46044608F060
:10542000EFFC50B31649496891F86A20824224D0B3
:1054300091F83C31012B05D091F86630234213D00E
:105440001DB11AE091F83E31F8E791F8631021425E
:1054500013D15AB1042A0ED004280CD0082A0AD03D
:10546000082808D0824208D9002070BD4FF4D071BE
:105470000620FBF79DFA8242F6D3012070BD0000A2
:105480002401002010B5104C01230021606890F821
:105490009D20803008F00AFC40B16068012304219F
:1054A00090F89E20803008F001FC08B1002010BD6B
:1054B000606890F8CA000028F9D00021122000F09E
:1054C00051FC012010BD0000240100200D490246BE
:1054D0004878A0B901F11000406842B18978090705
:1054E00003D590F89F00072809D00120704700F1EC
:1054F0002C018A8C818E8A4201D8FFF73FB80020A8
:10550000704700001401002038B5324C0546606831
:1055100080300AF059F800285BD1002D59D160681D
:105520000123194690F89F20803008F0BFFB002827
:105530004FD1606890F830118DF8001000990091FB
:105540009DF80020002142B1A0F8D01090F8311150
:1055500080F828110021022030E090F89E200123DD
:105560000421803008F0A2FB0546FFF7AFFE0028BB
:105570002FD12846FFF76CFE00282AD1FFF782FFC3
:10558000002826D1606890F89D1009291AD0002DB6
:105590001FD100F013FB00281BD1606801230021FC
:1055A00090F89D20803008F081FB002811D06068C1
:1055B00090F8C40200280CD00021FF20BDE838403C
:1055C00000F0D0BB90F8211180F8281100210720AD
:1055D000F4E738BD24010020F8B52B4D060005F195
:1055E000100433D100F0AAF800F052F806002DD1D3
:1055F0006988480706D5606890F89F00062801D1A1
:1056000001202870880716D5A868C0782B2807D2F3
:105610001E4951F8201019B11B48103088470AE084
:10562000FF2804D040F648013120FBF7C1F91648A5
:1056300010300AF041F8A878C00607D5606890F8E5
:105640009E100A2902D10B2180F89E10687800076D
:1056500018D560680123052190F89E20803008F05D
:1056600025FB08B108260DE00025694603200095BA
:10567000FCF72EFA009828B1057210226168009894
:1056800008F0BCFE3046F8BD14010020D80100200F
:1056900070B5284D0020A978C90717D0E86805F132
:1056A00010040123C6786068052190F89E208030A0
:1056B00008F0FCFA58B1B61E0A2E06D2DFE806F052
:1056C00007070505070705050707082070BDE868F7
:1056D000FDF744F938B3E868C5781DB1012D01D054
:1056E000162D13D1606890F89D0008F037FB68B163
:1056F000616891F89D00202808D0212803D0162D3C
:105700000FD0022070BD2E2081F89D002B2D0AD2D3
:10571000094850F8251031B1BDE8704005481030F7
:105720000847202070BDBDE870400248103000F0EE
:1057300047BD0000140100202C01002070B5254E4B
:10574000B078000745D506F110046068803009F094
:105750003BFF48B16068FE21002580F8261190F8D3
:105760009E101A290ED104E040F654013120FBF7B7
:105770001FF980F8DB501748103008F080FF606890
:1057800080F89E50606890F89D10202902D0312941
:1057900016D10EE090F89E2001230B21803008F0F6
:1057A00085FA08B12E2000E02120616881F89D0073
:1057B00006E0012180F8C51280F89D5080F8D6508F
:1057C000606890F89F10072903D10221317080F89A
:1057D000261170BD1401002038B505466846FCF757
:1057E00011F808B32222002100980BF0C6FB032118
:1057F000009808F07CFD0098017801F0EF0101703D
:105800002946FDF7BBF85B4C112D32D00FDCA5F11A
:1058100002050D2D1FD2DFE805F0211E55A3A3269A
:105820001E621EA33F39900040F6FE219EE0172D18
:1058300075D008DCA5F11205052D0CD2DFE805F0C6
:10584000909054543800232D7BD0242D79D0252DD1
:1058500077D0FF2D7CD040F6AA3187E061680098B0
:1058600091F8281116E06068009990F828010871F5
:1058700076E0606890F82311009808F024FD6068D5
:1058800090F82211009808F022FD69E06168009804
:1058900091F82211017163E000980D2101715921E5
:1058A0004171002181717721C1711021017257E08E
:1058B0000098616891F83E110171616891F83F119B
:1058C00041714DE06168009801F5107108F0B6FC77
:1058D0006168009801F58E7108F0ADFC40E0254844
:1058E0000099FDF70BFC3BE06068B0F84C100098A5
:1058F00008F005FD6068B0F82A11009808F003FD73
:105900006068B0F84810009808F001FD6068B0F8D1
:105910002811009808F0FFFC22E000E011E0616827
:1059200091F83C0101280098C4D091F866100171EB
:10593000616891F86710C3E70AE00098FDF788FBFB
:105940000EE00D4B0B4A28461B680099984707E06C
:10595000606890F8C722D0F8C812009808F0B9FC27
:10596000FBF72AFF002804D140F6AE313120FBF7C7
:105970001FF838BD24010020840200202DE9F35FC8
:105980008C4E8A4670680088FBF7EAFC07000CD052
:10599000A6F110054FF000046888C0050AD57068AC
:1059A000A0F8CC4080F8344209E040F6896131200B
:1059B000FAF7FEFF716831F8CC0F401C088000F048
:1059C0005BFF4FF0010940B36888000506D5706899
:1059D00090F8A31011B1C0F8C0401EE07068D0F874
:1059E000C010491CC0F8C010D0F8C4208A4201D3AE
:1059F000531A00E00023B5F804C00CF1050C634510
:105A000001D880F8CA90914207D3C0F8C040022262
:105A1000694900F5AC7008F005FD68884FF0020B8D
:105A200010F4407F0ED0706890F8A11011B10329D6
:105A300008D102E080F8A19001E080F8A1B0012136
:105A4000FEF7ACFD7068B04690F8A110012904D1B2
:105A50006988490501D580F8A1B00099002979D15C
:105A6000A978490602D5A0F8484204E0B0F84812E7
:105A7000491CA0F848125046FFF7AEFD40EA0A0064
:105A80008246FFF741FDD8F80460B6F82802401CB2
:105A9000A6F8280296F82C0228B1FCF757F8B0B106
:105AA000A6F8284213E0FBF72FFF08B1A6F828421A
:105AB000FBF724FF58B196F83402401CC0B286F8B8
:105AC0003402022803D9A6F8284286F83442D8F8CE
:105AD00004004646012390F89E200021803008F003
